:100000000A128A11FC2F00308A000408840A820731
:10001000003438342D34423469347434203450344C
:100020006F3472347434423420344D346F34643459
:10003000653400344C34613462342E34203442341C
:1000400069346F346D3465346434693463346134D5
:0200500000347A
:100E3000F1008312031307147108860087140D3024
:100E4000F000F00B212F8312031387100D30F000F8
:100E5000F00B282F0800F20083120313071072080A
:100E6000860087140D30F000F00B342F831203132B
:100E700087100330F1009730F000F00B3D2FF10B9D
:100E80003D2F422F0800F40074030319482F492F07
:100E9000512F7308BF3EF500003003180130F600F3
:100EA000582F73087F3EF500003003180130F6001C
:100EB0007508F70077080A128A112B270A128A117F
:100EC0000800F301F401772F7308720784000A12F7
:100ED0008A1103200A128A110A128A1118270A128B
:100EE0008A110130F3070318F40A0030F40773087D
:100EF000720784000A128A1103200A128A11003A2A
:100F0000031D832F842F642F08001A30F400F8305B
:100F1000F300F30B892FF40B892F000038300A12ED
:100F20008A112B270A128A110C300A128A112B27D8
:100F30000A128A1106300A128A112B270A128A1104
:100F400001300A128A112B270A128A110330F40089
:100F50009730F300F30BAA2FF40BAA2FAF2F080042
:100F6000831603138601FC3087008316031788015C
:100F700089010A128A1185270A128A1101300A1280
:100F80008A112B270A128A110330F9009730F800D2
:100F9000F80BC82FF90BC82FCD2FF301F30A01303E
:100FA0000A128A1143270A128A110130F2000A122A
:100FB0008A1161270A128A11F301F30A02300A1218
:100FC0008A1143270A128A111230F2000A128A117A
:100FD00061270A128A110B30FA002630F9005D30C1
:100FE000F800F80BF12FF90BF12FFA0BF12FF82F76
:100FF000BE2F0A128A11002883010A128A11B02F0B
:02400E00E42F9D
:00000001FF
