:100000000A128A11FC2F00308A000408840A820731
:1000100000344C34613462342E3420344234693438
:100020006F346D346534643469346334613400345E
:100030005034493443343134363446343834383427
:0A004000363420344F344B340034C2
:100C9800F50075030319512E522E5A2E7408BF3EC3
:100CA800F600003003180130F700612E74087F3E0B
:100CB800F600003003180130F7007608F8007808CD
:100CC8000A128A11EA260A128A110800F401F501AB
:100CD800802E7408730784000A128A1103200A12EE
:100CE8008A110A128A11B8260A128A110130F407E9
:100CF8000318F50A0030F5077408730784000A1210
:100D08008A1103200A128A11003A031D8C2E8D2E97
:100D18006D2E0800F0007018922E962E8312031381
:100D28000615992E831203130611F0189C2EA02E77
:100D3800831203138615A32E8312031386117019C9
:100D4800A62EAA2E831203130616AD2E83120313A2
:100D58000612F019B02EB42E831203138616B72E7E
:100D68008312031386120800F20083120313061479
:100D78007208F10004300310F10CFF3E031DBF2E72
:100D880071080A128A118E260A128A118312031315
:100D980086140D30F100F10BCF2E83120313861049
:100DA80072080F390A128A118E260A128A118312C2
:100DB800031386140D30F100F10BE02E8312031398
:100DC80086100D30F100F10BE72E0800F3008312B6
:100DD800031306107308F10004300310F10CFF3EF2
:100DE800031DF12E71080A128A118E260A128A1121
:100DF8008312031386140D30F100F10B012F8312B7
:100E08000313861073080F390A128A118E260A12E4
:100E18008A118312031386140D30F100F10B122F7F
:100E28008312031386100330F2009730F100F10BA0
:100E38001B2FF20B1B2F202F08008316031386018C
:100E480083160317880189010A128A116B270A126F
:100E58008A1101300A128A11EA260A128A1103300D
:100E6800FA009730F900F90B372FFA0B372F3C2F80
:100E7800F401F40A01300A128A114C260A128A1166
:100E88001030F3000A128A116A260A128A11F40134
:100E9800F40A02300A128A114C260A128A11013009
:100EA800F3000A128A116A260A128A110B30FB0013
:100EB8002630FA005D30F900F90B602FFA0B602F2D
:100EC800FB0B602F672F2D2F0A128A110028003084
:100ED8000A128A118E260A128A111A30F500F83081
:100EE800F400F40B752FF50B752F00008312031314
:100EF800061003300A128A118E260A128A118312EA
:100F0800031386140730F5007D30F400F40B8A2FA4
:100F1800F50B8A2F8312031386100730F5007D30F6
:100F2800F400F40B952FF50B952F03300A128A1154
:100F38008E260A128A118312031386140730F500CD
:100F48007D30F400F40BA62FF50BA62F83120313A4
:100F580086103130F400F40BAF2FB22F03300A1291
:100F68008A118E260A128A118312031386140730F7
:100F7800F5007D30F400F40BBF2FF50BBF2F831263
:100F88000313861002300A128A118E260A128A1159
:100F98008312031386140730F5007D30F400F40B38
:100FA800D32FF50BD32F83120313861028300A1280
:100FB8008A11EA260A128A110C300A128A11EA26C4
:100FC8000A128A1106300A128A11EA260A128A11AE
:100FD80001300A128A11EA260A128A110330F50032
:100FE8009730F400F40BF62FF50BF62FFB2F0800C3
:080FF80083010A128A11212F66
:02400E00E42F9D
:00000001FF
